:100000000C945E000C9486000C9486000C94860080
:100010000C9486000C9486000C9486000C94860048
:100020000C9486000C9486000C9486000C94860038
:100030000C9486000C9486000C9486000C94860028
:100040000C94B7040C9486000C94FD030C94D70315
:100050000C9486000C9486000C9486000C94860008
:100060000C9486000C948600000000080002010039
:100070000003040700000000000000000000000072
:10008000240027002A0001020408102040800102F9
:1000900004081020010204081020000000002500C0
:1000A00028002B00040404040404040402020202D5
:1000B00002020303030303030208F20711241FBE15
:1000C000CFEFD8E0DEBFCDBF11E0A0E0B1E0E6ECBD
:1000D000FEE102C005900D92AE35B107D9F726E0DA
:1000E000AEE5B1E001C01D92A33BB207E1F710E01D
:1000F000CDE5D0E004C02197FE010E94DE0CCC3596
:10010000D107C9F70E943C050C94560F0C940000CF
:10011000CF92DF92EF92FF920F931F93CF93DF93D3
:100120006C017A018B01C0E0D0E0CE15DF0589F0CB
:10013000D8016D918D01D601ED91FC910190F08176
:10014000E02DC6010995892B11F47E0102C021968C
:10015000ECCFC701DF91CF911F910F91FF90EF90EE
:10016000DF90CF900895FC01918D828D981761F0FA
:10017000828DDF01A80FB11D5D968C91928D9F5FDE
:100180009F73928F90E008958FEF9FEF0895FC0189
:10019000918D828D981731F0828DE80FF11D858D3C
:1001A00090E008958FEF9FEF0895FC01918D228DCF
:1001B000892F90E0805C9F4F821B91098F73992754
:1001C00008958FE692E00E94D50021E0892B09F482
:1001D00020E0822F0895FC01848DDF01A80FB11D5E
:1001E000A35ABF4F2C91848D90E001968F7399276D
:1001F000848FA689B7892C93A089B1898C9180645A
:100200008C93938D848D981306C00288F389E02D1A
:1002100080818F7D80830895EF92FF920F931F93CB
:10022000CF93DF93EC0181E0888F9B8D8C8D9813A9
:1002300005C0E889F989808185FD24C0F62E0B8DE3
:1002400010E00F5F1F4F0F731127E02E8C8DE81207
:100250000CC00FB607FCFACFE889F989808185FFC9
:10026000F5CFCE010E94EB00F1CF8B8DFE01E80FA0
:10027000F11DE35AFF4FF0820B8FEA89FB898081E1
:10028000806207C0EE89FF896083E889F9898081EF
:100290008064808381E090E0DF91CF911F910F9186
:1002A000FF90EF900895CF93DF93EC01888D882322
:1002B000C9F0EA89FB89808185FD05C0A889B989D3
:1002C0008C9186FD0FC00FB607FCF5CF808185FFAE
:1002D000F2CFA889B9898C9185FFEDCFCE010E941C
:1002E000EB00E7CFDF91CF91089580E090E0892B7C
:1002F00029F00E94E10081110C94000008953FB79D
:10030000F8948091630190916401A0916501B0918E
:10031000660126B5A89B05C02F3F19F00196A11DC7
:10032000B11D3FBFBA2FA92F982F8827820F911D8B
:10033000A11DB11DBC01CD0142E0660F771F881FD2
:10034000991F4A95D1F708950F931F93CF93DF9389
:10035000CDB7DEB729970FB6F894DEBF0FBECDBF7D
:100360000E947F0100911C0310911D0320911E0328
:1003700030911F03DC01CB01801B910BA20BB30B4F
:10038000C297A105B10560F3F89480911203909192
:1003900013039A838983E0911603F0911703DF0119
:1003A00011968081898790910E03E0912003F0914E
:1003B000210380912203992309F42EC09081982B68
:1003C00098879081809589238F838F818C8388E0A3
:1003D0008B8358856F8149853B812C8189819A81E6
:1003E000508347FD252F3A952083262F39F0441F4F
:1003F00000C000006083000000C0F2CF38E04D91E3
:1004000060830000019761F7F0932103E0932003DC
:1004100049873B832C8338C09081982B98879081A3
:10042000809589238F838F818E8388E08D83588583
:100430006F8149853D812E8189819A81508347FD55
:10044000252F00C000C0208300C000C000C000C035
:1004500000C060830000262F3A9541F0441F000041
:1004600000C000C000C000C000C0E8CF38E04D911F
:1004700000C0608300C0019709F7F0932103E09367
:10048000200349873D832E839A83898378940E9431
:100490007F0160931C0370931D0380931E03909350
:1004A0001F0329960FB6F894DEBF0FBECDBFDF91B4
:1004B000CF911F910F9108958F929F92AF92BF920B
:1004C000CF92DF92EF92FF926B017C010E947F013D
:1004D0004B015C01C114D104E104F104F1F00E946C
:1004E0007F01DC01CB0188199909AA09BB09883E63
:1004F0009340A105B10570F321E0C21AD108E108CB
:10050000F10888EE880E83E0981EA11CB11CC1146E
:10051000D104E104F10419F7DDCFFF90EF90DF90F3
:10052000CF90BF90AF909F908F9008958EBD0000A8
:100530000DB407FEFDCF8EB508952F923F924F92D6
:100540005F926F927F928F929F92AF92BF92CF9263
:10055000DF92EF92FF920F931F93CF93DF9300D020
:1005600000D000D0CDB7DEB7E0E32E2EE3E03E2E84
:10057000E12CF12C810127E030E02E193F093A836C
:100580002983FC82EB82C12CD12CC0FE05C02B81BB
:100590003C813E832D8304C049815A815E834D8313
:1005A00040900001509001016090020170900301A1
:1005B000580152E0A51AB108F501608170E080E0B1
:1005C00090E00E94150DA30192010E94790D0E94F6
:1005D000E40C962EF5016083F80162915F0170E0F2
:1005E00080E090E00E94150DA30192010E94790D18
:1005F0000E94E40C862EF5016083F801608170E0B2
:1006000080E090E00E94150DA30192010E94790DF7
:100610000E94E40CF8016083809110039091110313
:100620002D813E812817390708F043C0209115031A
:10063000222361F0929EC0011124992E829EC00156
:100640001124892E629FB0011124672F40911B0352
:1006500080911803209116033091170348130BC0A3
:100660008D819E81880F991F4D815E81840F951F1A
:10067000280F391F0CC08D819E81880F991F880F0C
:10068000991F280F391FF901E40FF11D1082809185
:100690001803F901E80FF11D908280911903F90107
:1006A000E80FF11D808280911A03280F311DF90196
:1006B0006083FFEFCF1ADF0A095F1F4F2B813C8158
:1006C000285F3F4F3C832B8349815A81485F5F4FAE
:1006D0005A83498358E0C516D10409F056CF8FEFED
:1006E000E81AF80A98E3290E311CE8E0EE16F10446
:1006F00009F040CF8091160390911703892BD1F018
:1007000026960FB6F894DEBF0FBECDBFDF91CF9116
:100710001F910F91FF90EF90DF90CF90BF90AF901F
:100720009F908F907F906F905F904F903F902F9011
:100730000C94A40126960FB6F894DEBF0FBECDBF71
:10074000DF91CF911F910F91FF90EF90DF90CF90AD
:10075000BF90AF909F908F907F906F905F904F90E1
:100760003F902F900895CF93DF93009779F0FC018D
:1007700001900020E9F73197AF01481B590BBC01EC
:100780008FE692E00E948800EC0102C0C0E0D0E059
:1007900042E050E06AE171E08FE692E00E9488005A
:1007A0008C0F9D1FDF91CF9108950E943B0F1F92E8
:1007B0000F920FB60F9211242F933F934F935F9395
:1007C0006F937F938F939F93AF93BF93EF93FF9319
:1007D0008FE692E00E94EB00FF91EF91BF91AF9105
:1007E0009F918F917F916F915F914F913F912F9149
:1007F0000F900FBE0F901F9018951F920F920FB67B
:100800000F9211242F938F939F93EF93FF93E09177
:100810007F02F09180028081E0918502F091860252
:1008200082FD12C09081809188028F5F8F7320912A
:100830008902821751F0E0918802F0E0E159FD4F02
:10084000958F8093880201C08081FF91EF919F91E5
:100850008F912F910F900FBE0F901F90189590E0E1
:10086000FC01E859FF4F3491FC01EA57FF4F2491F6
:10087000FC01EC55FF4FE491EE2309F43BC0332318
:1008800039F1333091F038F43130A9F0323001F5DC
:1008900084B58F7D12C0373091F03830A1F03430FC
:1008A000B9F4809180008F7D03C0809180008F77A4
:1008B000809380000DC084B58F7784BD09C080917E
:1008C000B0008F7703C08091B0008F7D8093B0001F
:1008D000F0E0EE0FFF1FE656FF4FA591B4918FB7E2
:1008E000F894EC91611103C020952E2301C02E2BAA
:1008F0002C938FBF0895CF93DF9390E0FC01EA57CC
:10090000FF4F2491FC01EC55FF4F8491882361F146
:1009100090E0880F991FFC01E458FF4FC591D491D6
:10092000FC01E656FF4FA591B491611109C09FB734
:10093000F8948881209582238883EC912E230BC024
:10094000623061F49FB7F8943881822F80958323B9
:100950008883EC912E2B2C939FBF06C08FB7F89401
:10096000E8812E2B28838FBFDF91CF9108951F92AE
:100970000F920FB60F9211242F933F938F939F9353
:10098000AF93BF9380915F0190916001A09161014D
:10099000B091620130915E0123E0230F2D3720F4E6
:1009A0000196A11DB11D05C026E8230F0296A11DC9
:1009B000B11D20935E0180935F0190936001A0932D
:1009C0006101B09362018091630190916401A091F3
:1009D0006501B09166010196A11DB11D809363016F
:1009E00090936401A0936501B0936601BF91AF91AC
:1009F0009F918F913F912F910F900FBE0F901F905D
:100A0000189561E0FC0181810C942F041F93CF9312
:100A1000DF93D82F192FC62F80910C03813091F0CE
:100A200060E080910D030E942F0481E00E949602F5
:100A300081E00E9496028CE093E00E94010581E033
:100A400080930C0360E080910D030E942F0482E0EC
:100A50000E949602812F0E9496028D2F0E9496027C
:100A60008C2F0E9496028CE093E00E9401058C2F4F
:100A7000DF91CF911F910895CF93DF93CDB7DEB76C
:100A800060970FB6F894DEBF0FBECDBF789484B5E3
:100A9000826084BD84B5816084BD85B5826085BD7A
:100AA00085B5816085BD80916E00816080936E0008
:100AB00010928100809181008260809381008091FA
:100AC00081008160809381008091800081608093AB
:100AD00080008091B10084608093B1008091B0006B
:100AE00081608093B00080917A00846080937A0066
:100AF00080917A00826080937A0080917A00816090
:100B000080937A0080917A00806880937A001092B6
:100B1000C100E0917F02F091800282E08083E09149
:100B20007B02F0917C021082E0917D02F0917E02C6
:100B300080E1808310928702E0918302F091840229
:100B400086E08083E0918102F09182028081806161
:100B50008083E0918102F0918202808188608083AD
:100B6000E0918102F0918202808180688083E0912F
:100B70008102F091820280818F7D808380911403B5
:100B800087FD08C061E00E947B0460E0809114034F
:100B90000E942F0481E080930F0300E010E0E12C1D
:100BA000F12CC12CD12C8091100390911103C81607
:100BB000D90670F58091150326E9882321F0829FDC
:100BC000C0011124292F30911B03409118038091FB
:100BD000160390911703341303C08E0D9F1D06C09A
:100BE000800F911FFC01E30FF11D1082309118035B
:100BF000FC01E30FF11D108230911903FC01E30F9A
:100C0000F11D208320911A03FC01E20FF11D1082D7
:100C10008091160390911703892B11F00E94A40173
:100C20004FEFC41AD40A83E0E80EF11C0C5F1F4F8B
:100C300090E4C916D10409F0B6CF68EE73E080E005
:100C400090E00E945C0287E691E09C0140E050E069
:100C5000F901E40FF51F118210824E5F5F4F4031A2
:100C60005105B1F7205F3F4FE1E0273E3E0771F7A6
:100C700020E030E0F901E058FF4FE80FF91F118242
:100C800010822E5F3F4F20313105A1F74096F1E0F1
:100C9000873E9F0769F74091270350912803609191
:100CA00029032EE233E080E090E0F901E80FF91F1C
:100CB000408351836283168215820796883391059B
:100CC000A1F7285C3F4F84E02E3E380761F780E0B3
:100CD00090E0A0E8BFE38093670290936802A0933E
:100CE0006902B0936A0280936B0290936C02A093A6
:100CF0006D02B0936E028093000190930101A09366
:100D00000201B09303018DE191E00E94B30300E082
:100D100010E017FD07C060E0C8010E9406050F5FE4
:100D20001F4FF7CF87E291E00E94B30300E010E08D
:100D3000602FC8010E94480F0F5F1F4F003411053C
:100D4000B9F730E4E32EF12C00E810E0C7010E946F
:100D5000400F682FC8018E199F090E94060591E077
:100D6000E91AF10899F700E010E0C8010E94400F6D
:100D7000682FC80180589F4F0E9406050F5F1F4FC4
:100D80000034110591F780E090E0A0E0BFE380938C
:100D9000670290936802A0936902B0936A0283E4A9
:100DA00091E00E94B303E12CF12C08E010E0809167
:100DB0000C03813091F060E080910D030E942F04BC
:100DC00081E00E94960281E00E9496028CE093E00E
:100DD0000E94010581E080930C0360E080910D0387
:100DE0000E942F0483E00E94960280E00E949602F7
:100DF0008E2D0E9496028FEF0E949602682F8CE043
:100E000093E06E870E940105E0916F02F0917002FD
:100E10000190F081E02D6E858FE692E0099542E029
:100E200050E06AE171E08FE692E00E948800C8011C
:100E3000B7010E94CA0CF701E770FF2793E0EE0F9D
:100E4000FF1F9A95E1F7E60FF71FEE0FFF1FE95915
:100E5000FE4FF182E082EFEFEE1AFE0AF0E4EF16A9
:100E6000F10409F0A4CF8DE491E00E94B303209136
:100E700027032F834091280348878091290389877E
:100E800080E3282E83E0382EE12CF12C812C912C4C
:100E9000388A2F86EF85F8893297FE83ED832F817C
:100EA00020838F859889FC0128852293FC83EB831E
:100EB0002985FC0120831482138287E692E09A83BD
:100EC0008983C12CD12CF401EE0DFF1DFD87EC8729
:100ED000EC85FD85EC0DFD1DE959FE4FA080B1802C
:100EE000EF85F88983819481A816B90609F448C072
:100EF000A114B10409F444C0E981FA814080518011
:100F000062807380F7E0FA9D8001FB9D100D112433
:100F100002511B4FF801628170E080E090E00E9476
:100F2000150DA30192010E94790D0E94E40C6A87BD
:100F3000F801618170E080E090E00E94150DA3014E
:100F400092010E94790D0E94E40C6B87F801608188
:100F500070E080E090E00E94150DA30192010E94D4
:100F6000790D0E94E40CED81FE8160832B85EB817D
:100F7000FC8120832A85EF85F8892083B482A382AF
:100F800040E8C40ED11C89819A8104969A83898392
:100F9000C11491E0D90609F09BCFEF85F889379607
:100FA000F88BEF87F2E08F0E911C20E182169104FE
:100FB00009F070CF40E1E40EF11C88E3280E311CEB
:100FC00090E8E916F10409F061CF0E949D020E94A9
:100FD0009D0264EF71E080E090E00E945C020E945C
:100FE0007501F5CF8091160390911703009711F0CA
:100FF0000E94A30E8091140387FD03C060E00C944F
:101000007B0408951F93CF93DF9310927202109286
:10101000710288EE93E0A0E0B0E0809373029093B9
:101020007402A0937502B09376028EE091E09093E3
:10103000700280936F0285EC90E090937C02809325
:101040007B0284EC90E090937E0280937D0280ECA2
:1010500090E09093800280937F0281EC90E09093E7
:1010600082028093810282EC90E0909384028093CC
:10107000830286EC90E09093860280938502109222
:1010800088021092890210928A0210928B021092AA
:10109000F1048FEF8093F2041092F4041092F304A1
:1010A0003CE73093EE043093EF043093F004109259
:1010B000F8048093F9041092FB041092FA04109241
:1010C000F5041092F6042CEF2093F7041092FF041D
:1010D0008093000510920205109201051092FC0405
:1010E0001092FD047CEB7093FE0410920605809331
:1010F00007051092090510920805F4E4F093030522
:1011000098E2909304057093050510920D05809365
:101110000E051092100510920F0594E990930A05A0
:1011200010920B0594E890930C051092140580938F
:1011300015051092170510921605E8EAE0931105BF
:101140001092120590E29093130510921B05809364
:101150001C0510921E0510921D05E0931805D0E1A4
:10116000D093190510921A05109222058093230539
:101170001092250510922405A8E8A0931F0594E17C
:1011800090932005109221051092290580932A053D
:1011900010922C0510922B0590E59093260590E374
:1011A0009093270510922805109230058093310501
:1011B000109233051092320510922D0548E74093A6
:1011C0002E0510922F051092370580933805109246
:1011D0003A051092390510923405C8E6C0933505DA
:1011E0001092360510923E0580933F0510924105FE
:1011F0001092400510923B0568E560933C05109203
:101200003D051092450580934605109248051092C1
:1012100047051092420590E490934305609344057E
:1012200010924C0580934D0510924F0510924E057B
:101230001092490510924A0510924B0510925305E1
:101240008093540510925605109255051092500542
:10125000109251051092520510925A0580935B0529
:1012600010925D0510925C0510925705109258057A
:1012700010925905109261058093620510926405E1
:101280001092630570935E0570935F05709360051F
:10129000109268058093690510926B0510926A059B
:1012A000109265054093660598EF9093670510923C
:1012B0006F0580937005109272051092710510925F
:1012C0006C0560936D0590936E0510927605809382
:1012D00077051092790510927805C0937305F09305
:1012E00074052093750510927D0580937E051092FC
:1012F000800510927F0558ED50937A0510927B057A
:10130000BCECB0937C051092840580938505109207
:10131000870510928605B4EEB09381051092820580
:101320006093830510928B0580938C0510928E0537
:1013300010928D059093880518E3109389051092FB
:101340008A0510929205809393051092950510924C
:101350009405B0938F051CE510939005D0939105EB
:101360001092990580939A0510929C0510929B0506
:10137000DCEAD09396053093970510929805109269
:10138000A0058093A1051092A3051092A2051092CA
:101390009D0538EB30939E0510929F051092A7058E
:1013A0008093A8051092AA051092A9051092A40591
:1013B000E093A5051092A6051092AE058093AF05A7
:1013C0001092B1051092B0051092AB05E093AC05F8
:1013D000F093AD051092B5058093B6051092B8054F
:1013E0001092B7051092B205A093B305A093B4056F
:1013F0001092BC058093BD051092BF051092BE05EA
:101400001092B9051092BA051092BB051092C3054F
:101410008093C4051092C6051092C5051092C005B0
:101420001092C1051092C2051092CA058093CB0597
:101430001092CD051092CC051092C7051092C805E8
:101440001092C9051092D1058093D2051092D4054F
:101450001092D3059093CE059093CF059093D0052D
:101460001092D8058093D9051092DB051092DA0509
:10147000DCE3D093D5057093D6052093D705109261
:10148000DF058093E0051092E2051092E105C0931C
:10149000DC05A093DD052093DE051092E605809320
:1014A000E7051092E9051092E80578E97093E305E5
:1014B0004093E4059093E5051092ED058093EE05C9
:1014C0001092F0051092EF059093EA054093EB051A
:1014D0009093EC051092F4058093F5051092F705B2
:1014E0001092F6059093F1056093F2057093F30561
:1014F0001092FB058093FC051092FE051092FD05ED
:101500009093F8054093F9056093FA05109202064E
:101510008093030610920506109204062093FF059F
:10152000A0EAA0930006F0930106109209068093AA
:101530000A0610920C0610920B0690930606309342
:10154000070610920806109210068093110610925A
:1015500013061092120630930D0690930E06F8E1D2
:10156000F0930F06109217068093180610921A0631
:10157000109219066093140650931506F4E5F09343
:10158000160610921E0680931F06109221061092D6
:10159000200660931B0690931C0670931D06109204
:1015A0002506809326061092280610922706109290
:1015B000220668EE609323065093240610922C06B0
:1015C00080932D0610922F0610922E064093290626
:1015D00040932A0640932B061092330680933406DC
:1015E000109236061092350610923006109231068F
:1015F0001092320610923A0680933B0610923D06F6
:1016000010923C0610923706109238061092390656
:1016100010924106809342061092440610924306AF
:1016200020933E0620933F062093400610924806E2
:101630008093490610924B0610924A0664EA609322
:101640004506B09346062093470610924F068093B6
:101650005006109252061092510630934C06309369
:101660004D0690934E0610925606809357061092A0
:10167000590610925806509353063093540690938F
:10168000550610925D0680935E06109260061092D9
:101690005F0690935A0630935B0690935C06109217
:1016A0006406809365061092670610926606909312
:1016B00061066093620660EC6093630610926B06AD
:1016C00080936C0610926E0610926D0660EF609328
:1016D000680660ED6093690660EB60936A0610929D
:1016E000720680937306109275061092740620930A
:1016F0006F0660EE60937006E093710610927906B3
:1017000080937A0610927C0610927B069093760660
:101710005093770640937806109280068093810656
:10172000109283061092820650937D0690937E0657
:1017300040937F06109287068093880610928A064F
:10174000109289063093840690938506309386061E
:1017500010928E0680938F0610929106109290063A
:1017600030938B0690938C0650938D0610929506BD
:101770008093960610929806109297061092920601
:10178000209393062093940610929C0680939D06C6
:1017900010929F0610929E069093990650939A0677
:1017A00090939B061092A3068093A4061092A6061F
:1017B0001092A5061092A0061092A1061092A20601
:1017C0001092AA068093AB061092AD061092AC065A
:1017D0001092A7061092A8061092A90680E090E049
:1017E0004FEFFC01EE5CFC4F9C0126593C4FDF01A2
:1017F00011971C9240831282118213971C921196AA
:101800001C9211961C923796E217F30781F7C8963F
:10181000803C21E0920729F710922A038FEF8093F2
:101820002B0310922D0310922C0310922703109279
:10183000280310922903109224031092230310927C
:1018400026031092250310920F0310921503109295
:101850001C0310921D0310921E0310921F0381E0BF
:1018600080931B03809318031092190392E09093C6
:101870001A0380930E0380EC90E0909313038093FF
:1018800012030E940E0E9093170380931603009785
:1018900061F020ECFC0111922A95E9F780E490E0D8
:1018A000909311038093100308C0109213031092B9
:1018B0001203109211031092100385E08093140319
:1018C00080910F03882341F061E085E00E947B0452
:1018D00060E085E00E942F04E9EAF0E0E491F0E0A6
:1018E000EE0FFF1FE656FF4F8591949190932103D1
:1018F00080932003EBE8F0E0E491E0932203CFB77C
:10190000F8948091AE06811127C0EEEAF0E0849150
:10191000E0E9F0E09491E82FF0E0EE0FFF1FE458CB
:10192000FF4FA591B491EC91E92321F461E08AE0A5
:101930000E942F0461E08AE00E947B048CB58061E4
:101940008CBD8CB580648CBD61E08DE00E947B0411
:1019500061E08BE00E947B048091AE068F5F8093F4
:10196000AE06CFBF61E08AE00E947B048CE093E08A
:101970000E9401058CB58C7F8CBD8DB581608DBDBD
:101980008AE080930D0381E080930C03DF91CF9177
:101990001F910895AA1BBB1B51E107C0AA1FBB1FC3
:1019A000A617B70710F0A61BB70B881F991F5A95EB
:1019B000A9F780959095BC01CD010895EE0FFF1F0A
:1019C0000590F491E02D09940E94580D88F09F57DE
:1019D00098F0B92F9927B751B0F0E1F0660F771F53
:1019E000881F991F1AF0BA95C9F714C0B13091F049
:1019F0000E94720DB1E008950C94720D672F782F3C
:101A00008827B85F39F0B93FCCF38695779567950D
:101A1000B395D9F73EF490958095709561957F4F79
:101A20008F4F9F4F0895E89409C097FB3EF490951F
:101A30008095709561957F4F8F4F9F4F9923A9F0A7
:101A4000F92F96E9BB279395F69587957795679536
:101A5000B795F111F8CFFAF4BB0F11F460FF1BC07A
:101A60006F5F7F4F8F4F9F4F16C0882311F096E90D
:101A700011C0772321F09EE8872F762F05C06623BB
:101A800071F096E8862F70E060E02AF09A95660F74
:101A9000771F881FDAF7880F9695879597F908952D
:101AA00057FD9058440F551F59F05F3F71F047950F
:101AB000880F97FB991F61F09F3F79F087950895F4
:101AC000121613061406551FF2CF4695F1DF08C013
:101AD000161617061806991FF1CF86957105610530
:101AE00008940895E894BB2766277727CB0197F9D8
:101AF00008950E948C0D0C94FD0D0E94EF0D38F09E
:101B00000E94F60D20F0952311F00C94E60D0C9434
:101B1000EC0D11240C94730D0E94500D70F3959FE1
:101B2000C1F3950F50E0551F629FF001729FBB27D4
:101B3000F00DB11D639FAA27F00DB11DAA1F649F70
:101B40006627B00DA11D661F829F2227B00DA11D23
:101B5000621F739FB00DA11D621F839FA00D611DA9
:101B6000221F749F3327A00D611D231F849F600DCA
:101B7000211D822F762F6A2F11249F5750409AF0F3
:101B8000F1F088234AF0EE0FFF1FBB1F661F771F7F
:101B9000881F91505040A9F79E3F510580F00C944A
:101BA000E60D0C94730D5F3FE4F3983ED4F38695F5
:101BB00077956795B795F795E7959F5FC1F7FE2BEA
:101BC000880F911D9695879597F9089597F99F67C6
:101BD00080E870E060E008959FEF80EC08950024B5
:101BE0000A941616170618060906089500240A9482
:101BF00012161306140605060895092E0394000C08
:101C000011F4882352F0BB0F40F4BF2B11F460FF96
:101C100004C06F5F7F4F8F4F9F4F0895CF93DF9327
:101C20008230910510F482E090E0E091B106F091ED
:101C3000B20620E030E0C0E0D0E0309711F1408102
:101C4000518148175907C0F04817590761F482813C
:101C50009381209719F09B838A832BC09093B206BF
:101C60008093B10626C02115310519F0421753079C
:101C700018F49A01BE01DF01EF010280F381E02D2B
:101C8000DCCF2115310509F1281B390B2430310532
:101C900090F412968D919C9113976115710521F026
:101CA000FB019383828304C09093B2068093B106B4
:101CB000FD01329644C0FD01E20FF31F8193919321
:101CC000225031092D933C933AC02091AF063091B8
:101CD000B006232B41F42091060130910701309387
:101CE000B0062093AF062091040130910501211523
:101CF000310541F42DB73EB74091080150910901DB
:101D0000241B350BE091AF06F091B006E217F30704
:101D1000A0F42E1B3F0B2817390778F0AC014E5F5B
:101D20005F4F2417350748F04E0F5F1F5093B006E2
:101D30004093AF068193919302C0E0E0F0E0CF01C1
:101D4000DF91CF9108950F931F93CF93DF93009767
:101D500009F48CC0FC013297138212820091B10603
:101D60001091B2060115110581F420813181820F95
:101D7000931F2091AF063091B0062817390779F5E7
:101D8000F093B006E093AF0671C0D80140E050E098
:101D9000AE17BF0750F412962D913C911397AD01E9
:101DA0002115310509F1D901F3CF9D01DA01338302
:101DB000228360817181860F971F8217930769F4D0
:101DC000EC0128813981260F371F2E5F3F4F318369
:101DD00020838A819B8193838283452B29F4F0930E
:101DE000B206E093B10642C01396FC93EE931297AD
:101DF000ED01499159919E01240F351FE217F30718
:101E000071F480819181840F951F029611969C93A5
:101E10008E938281938113969C938E931297E0E028
:101E2000F0E0D80112968D919C911397009719F0CC
:101E3000F8018C01F6CF8D919C9198012E5F3F4F58
:101E4000820F931F2091AF063091B00628173907F3
:101E500069F4309729F41092B2061092B10602C0CC
:101E6000138212821093B0060093AF06DF91CF91D8
:101E70001F910F91089581E090E0F8940C94560F13
:101E8000F999FECF92BD81BDF89A992780B5089542
:101E9000262FF999FECF1FBA92BD81BD20BD0FB686
:101EA000F894FA9AF99A0FBE0196089510E0CDE5DC
:101EB000D0E004C0FE010E94DE0C2196CE35D10791
:061EC000C9F7F894FFCF02
:101EC6000000803F0000B3068000000000000C0107
:101ED6008800D500B300C70053010D0A00494E49DA
:101EE60054205352414D0047454E455241544520DA
:101EF60053414D504C4520454550524F4D2044418D
:101F060054410072656164205352414D0067656E0D
:0E1F1600206F7574707574206C6179657200AF
:00000001FF
