:100000000C945E000C9486000C9486000C94860080
:100010000C9486000C9486000C9486000C94860048
:100020000C9486000C9486000C9486000C94860038
:100030000C9486000C9486000C9486000C94860028
:100040000C9459020C9486000C949F010C94790135
:100050000C9486000C9486000C9486000C94860008
:100060000C9486000C948600000000080002010039
:100070000003040700000000000000000000000072
:10008000240027002A0001020408102040800102F9
:1000900004081020010204081020000000002500C0
:1000A00028002B00040404040404040402020202D5
:1000B00002020303030303038D067D0611241FBE02
:1000C000CFEFD8E0DEBFCDBF11E0A0E0B1E0E4ECBF
:1000D000F9E102C005900D92A233B107D9F725E0EE
:1000E000A2E3B1E001C01D92A13CB207E1F710E02C
:1000F000CDE5D0E004C02197FE010E946B0ACC350B
:10010000D107C9F70E9434030C94D50C0C9400005D
:10011000FC01918D828D981761F0828DDF01A80F0F
:10012000B11D5D968C91928D9F5F9F73928F90E031
:1001300008958FEF9FEF0895FC01918D828D9817A0
:1001400031F0828DE80FF11D858D90E008958FEFDD
:100150009FEF0895FC01918D228D892F90E0805CA6
:100160009F4F821B91098F73992708958FE391E028
:100170000E94AA0021E0892B09F420E0822F089533
:10018000FC01848DDF01A80FB11DA35ABF4F2C9134
:10019000848D90E001968F739927848FA689B78903
:1001A0002C93A089B1898C9180648C93938D848DDC
:1001B000981306C00288F389E02D80818F7D8083AB
:1001C0000895EF92FF920F931F93CF93DF93EC016B
:1001D00081E0888F9B8D8C8D981305C0E889F98903
:1001E000808185FD24C0F62E0B8D10E00F5F1F4F20
:1001F0000F731127E02E8C8DE8120CC00FB607FC90
:10020000FACFE889F989808185FFF5CFCE010E9478
:10021000C000F1CF8B8DFE01E80FF11DE35AFF4FB7
:10022000F0820B8FEA89FB898081806207C0EE89AA
:10023000FF896083E889F98980818064808381E017
:1002400090E0DF91CF911F910F91FF90EF90089573
:10025000CF93DF93EC01888D8823C9F0EA89FB896D
:10026000808185FD05C0A889B9898C9186FD0FC064
:100270000FB607FCF5CF808185FFF2CFA889B98939
:100280008C9185FFEDCFCE010E94C000E7CFDF91BA
:10029000CF91089580E090E0892B29F00E94B6006C
:1002A00081110C94000008953FB7F89480913701B4
:1002B00090913801A0913901B0913A0126B5A89BDF
:1002C00005C02F3F19F00196A11DB11D3FBFBA2FE8
:1002D000A92F982F8827820F911DA11DB11DBC0148
:1002E000CD0142E0660F771F881F991F4A95D1F70D
:1002F00008951F920F920FB60F9211242F933F93E0
:100300004F935F936F937F938F939F93AF93BF931D
:10031000EF93FF938FE391E00E94C000FF91EF9174
:10032000BF91AF919F918F917F916F915F914F910D
:100330003F912F910F900FBE0F901F9018951F9215
:100340000F920FB60F9211242F938F939F93EF93D9
:10035000FF93E0914F01F09150018081E0915501B0
:10036000F091560182FD12C09081809158018F5FFB
:100370008F7320915901821751F0E0915801F0E0FC
:10038000E15CFE4F958F8093580101C08081FF9101
:10039000EF919F918F912F910F900FBE0F901F9013
:1003A000189590E0FC01E859FF4F3491FC01EA57A1
:1003B000FF4F2491FC01EC55FF4FE491EE2309F42B
:1003C0003BC0332339F1333091F038F43130A9F0A8
:1003D000323001F584B58F7D12C0373091F038305E
:1003E000A1F03430B9F4809180008F7D03C08091FA
:1003F00080008F77809380000DC084B58F7784BD97
:1004000009C08091B0008F7703C08091B0008F7DCC
:100410008093B000F0E0EE0FFF1FE656FF4FA5916E
:10042000B4918FB7F894EC91611103C020952E23FD
:1004300001C02E2B2C938FBF0895CF93DF9390E0B4
:10044000FC01EA57FF4F2491FC01EC55FF4F8491CA
:10045000882361F190E0880F991FFC01E458FF4F59
:10046000C591D491FC01E656FF4FA591B49161115D
:1004700009C09FB7F8948881209582238883EC91E6
:100480002E230BC0623061F49FB7F8943881822F1D
:10049000809583238883EC912E2B2C939FBF06C0DD
:1004A0008FB7F894E8812E2B28838FBFDF91CF91EF
:1004B00008951F920F920FB60F9211242F933F931E
:1004C0008F939F93AF93BF938091330190913401A9
:1004D000A0913501B09136013091320123E0230F14
:1004E0002D3720F40196A11DB11D05C026E8230F6C
:1004F0000296A11DB11D2093320180933301909388
:100500003401A0933501B093360180913701909169
:100510003801A0913901B0913A010196A11DB11D98
:100520008093370190933801A0933901B0933A0139
:10053000BF91AF919F918F913F912F910F900FBEDF
:100540000F901F90189561E0FC0181810C94D101FE
:100550008EBD00000DB407FEFDCF8EB50895CF927D
:10056000DF92EF92FF920F931F93CF93DF936C0173
:100570007A018B01C0E0D0E0CE15DF0589F0D8010B
:100580006D918D01D601ED91FC910190F081E02DEE
:10059000C6010995892B11F47E0102C02196ECCF8A
:1005A000C701DF91CF911F910F91FF90EF90DF90E6
:1005B000CF9008950E94C80CCF93DF93009779F0F5
:1005C000FC0101900020E9F73197AF01481B590B5E
:1005D000BC018FE391E00E94AF02EC0102C0C0E0D9
:1005E000D0E042E050E06EE271E08FE391E00E94E3
:1005F000AF028C0F9D1FDF91CF9108951F93CF9372
:10060000DF93D82F192FC62F8091DC01813091F014
:1006100060E08091DD010E94D10181E00E94A8028A
:1006200081E00E94A8028CED91E00E94A30281E08B
:100630008093DC0160E08091DD010E94D10182E0C5
:100640000E94A802812F0E94A8028D2F0E94A8025A
:100650008C2F0E94A8028CED91E00E94A3028C2FA7
:10066000DF91CF911F910895CF93DF93CDB7DEB780
:1006700064970FB6F894DEBF0FBECDBF789484B5F3
:10068000826084BD84B5816084BD85B5826085BD8E
:1006900085B5816085BD80916E00816080936E001C
:1006A000109281008091810082608093810080910E
:1006B00081008160809381008091800081608093BF
:1006C00080008091B10084608093B1008091B0007F
:1006D00081608093B00080917A00846080937A007A
:1006E00080917A00826080937A0080917A008160A4
:1006F00080937A0080917A00806880937A001092CB
:10070000C100E0914F01F091500182E08083E091BF
:100710004B01F0914C011082E0914D01F0914E019E
:1007200080E1808310925701E0915301F0915401D0
:1007300086E08083E0915101F091520180818061D7
:100740008083E0915101F091520180818860808323
:10075000E0915101F0915201808180688083E091A5
:100760005101F091520180818F7D80838091E4015D
:1007700087FD08C061E00E941D0260E08091E401F5
:100780000E94D10181E08093DF014091F7015091F7
:10079000F8016091F9012CE333E080E090E0F90189
:1007A000E80FF91F408351836283059688329105D3
:1007B000B1F7285D3F4F84E02C37380771F72CEFF5
:1007C00031E080E090E0F901E80FF91F40835183A8
:1007D0006283059688329105B1F7285D3F4F93E01B
:1007E0002C33390771F780E090E0A0E8BFE38093F5
:1007F0003B0190933C01A0933D01B0933E01809357
:10080000000190930101A0930201B09303018AE1DA
:1008100091E00E94DC0200E010E017FD07C060E0FC
:10082000C8010E94FE020F5F1F4FF7CFE0E4EE2EDB
:10083000F12C00E810E0C7010E94CD0C682FC80120
:100840008E199F090E94FE02E1E0EE1AF10899F765
:1008500000E010E0C8010E94CD0C682FC80180584C
:100860009F4F0E94FE020F5F1F4F0034110591F74A
:1008700084E291E00E94DC0210E08091DC01813092
:1008800091F060E08091DD010E94D10181E00E9441
:10089000A80281E00E94A8028CED91E00E94A302D0
:1008A00081E08093DC0160E08091DD010E94D10154
:1008B00083E00E94A80280E00E94A802812F0E948B
:1008C000A8028FEF0E94A802682F8CED91E06C8B3C
:1008D0000E94A302E0913F01F09140010190F0815C
:1008E000E02D6C898FE391E0099542E050E06EE2E3
:1008F00071E08FE391E00E94AF021F5F103409F0B6
:10090000BCCFF091F701FA872091F8012C87309144
:10091000F9013E8740903B0150903C0160903D01C1
:1009200070903E0187010E5F1F4FC80184509E4F9B
:100930006C01045C1C4F812C912CC60102979A8B90
:10094000898B2A85FC012083F6012C8522931F01C7
:100950002E85F60120839C85F80132973081388BF3
:1009600031965F01FA85F31308C0F5018081981371
:1009700004C0F8018081281771F0FA852889F213E4
:100980008AC1F5018081FC85F81385C1F801808159
:10099000FE85F81380C12FEF821A920A35E0C30E4C
:1009A000D11C0B5F1F4F88E08816910431F698E246
:1009B000E90EF11CE0E4EE16E1E0FE0609F0B2CF2C
:1009C0002EEF31E03F872E87A12CB12CEE84FF84DF
:1009D000E7E0F0E0EA19FB09FB87EA87BD86AC8611
:1009E000812C912C80FE03C00C851D8502C00A85D8
:1009F0001B85209000013090010140900201509031
:100A00000301370192E0691A7108F301608170E017
:100A100080E090E00E94A20AA20191010E94060BD0
:100A20000E94710AD62EF3016083F70162913F01A3
:100A300070E080E090E00E94A20AA20191010E9471
:100A4000060B0E94710AC62EF3016083F7016081D4
:100A500070E080E090E00E94A20AA20191010E9451
:100A6000060B0E94710AF70160838091E00190916A
:100A7000E1010817190708F041C08091E5018823BA
:100A800061F0D89E90011124D32EC89E90011124AC
:100A9000C32E689FB0011124672F4091EB01809114
:100AA000E8012091E6013091E701481309C0C8012F
:100AB000880F991F800F911F8901080F191F0CC003
:100AC000C801880F991F880F991F8901080F191FE6
:100AD000F801E40FF11D10828091E801F801E80FA0
:100AE000F11DD0828091E901F801E80FF11DC0826B
:100AF0008091EA01F801E80FF11D6083FFEF8F1A82
:100B00009F0A25E0E20EF11C8C859D8508969D8745
:100B10008C87EA85FB853896FB87EA87F8E08F1695
:100B2000910409F05FCF2FEFA21AB20A8E859F853C
:100B300088969F878E8798E0A916B10409F046CF62
:100B40008091E6019091E701892B09F4A1C00E94F0
:100B500054010091EC011091ED012091EE013091D2
:100B6000EF01DC01CB01801B910BA20BB30BC297F1
:100B7000A105B10560F3F8948091E2019091E30141
:100B80009A838983E091E601F091E701DF011196F4
:100B9000808189879091DE01E091F001F091F1016F
:100BA0008091F201992309F42EC09081982B9887A7
:100BB0009081809589238F838F818C8388E08B83BC
:100BC00058856F8149853B812C8189819A81508329
:100BD00047FD252F3A952083262F39F0441F00C06A
:100BE00000006083000000C0F2CF38E04D916083C8
:100BF0000000019761F7F093F101E093F00149875C
:100C00003B832C8338C09081982B98879081809566
:100C100089238F838F818E8388E08D8358856F81B0
:100C200049853D812E8189819A81508347FD252FF9
:100C300000C000C0208300C000C000C000C000C0D1
:100C400060830000262F3A9541F0441F000000C049
:100C500000C000C000C000C0E8CF38E04D9100C027
:100C6000608300C0019709F7F093F101E093F00170
:100C700049873D832E839A83898378940E94540107
:100C80006093EC017093ED018093EE019093EF017E
:100C90000E944A01FDCFF801608170E080E090E0A1
:100CA0000E94A20AA30192010E94060B0E94710AEF
:100CB0006B8BF501608170E080E090E00E94A20AF9
:100CC000A30192010E94060B0E94710AB62EF889B8
:100CD0006F2F70E080E090E00E94A20AA3019201D1
:100CE0000E94060B0E94710AE989FA896083F1016A
:100CF000B0822B89F60120834ECE8091E60190913F
:100D0000E701009711F00E94300C8091E40187FD0B
:100D100003C060E00C941D0208951F93CF93DF93EE
:100D2000109242011092410188EE93E0A0E0B0E001
:100D30008093430190934401A0934501B0934601F1
:100D40008EE091E09093400180933F0185EC90E02C
:100D500090934C0180934B0184EC90E090934E0172
:100D600080934D0180EC90E09093500180934F016F
:100D700081EC90E0909352018093510182EC90E0DD
:100D8000909354018093530186EC90E09093560128
:100D900080935501109258011092590110925A01F6
:100DA00010925B0110927F048FEF809380043CE7E8
:100DB00030937C0430937D0430937E04109284043D
:100DC0008093850410928104109282042CEF20936A
:100DD00083041092890480938A04109286041092EE
:100DE00087047CEB7093880410928E0480938F04A8
:100DF000F4E4F0938B0498E290938C0470938D0448
:100E0000109293048093940494E990939004109228
:100E1000910494E89093920410929804809399041A
:100E2000E8EAE09395041092960490E29093970478
:100E300010929D0480939E04E0939A04D0E1D09395
:100E40009B0410929C041092A2048093A304A8E82F
:100E5000A0939F0494E19093A0041092A104109297
:100E6000A7048093A80490E59093A40490E3909342
:100E7000A5041092A6041092AC048093AD041092C5
:100E8000A90448E74093AA041092AB041092B1045D
:100E90008093B2041092AE04C8E6C093AF041092DF
:100EA000B0041092B6048093B7041092B30468E5BE
:100EB0006093B4041092B5041092BB048093BC04F8
:100EC0001092B80490E49093B9046093BA0410921D
:100ED000C0048093C1041092BD041092BE0410920D
:100EE000BF041092C5048093C6041092C2041092ED
:100EF000C3041092C4041092CA048093CB041092CD
:100F0000C7041092C8041092C9041092CF048093B1
:100F1000D0047093CC047093CD047093CE041092DF
:100F2000D4048093D5041092D1044093D20498EF56
:100F30009093D3041092D9048093DA041092D604CB
:100F40006093D7049093D8041092DE048093DF045A
:100F5000C093DB04F093DC042093DD041092E304DF
:100F60008093E40458ED5093E0041092E104BCEC4B
:100F7000B093E2041092E8048093E904B4EEB093D5
:100F8000E5041092E6046093E7041092ED04809368
:100F9000EE049093EA0418E31093EB041092EC042F
:100FA0001092F2048093F304B093EF041CE51093C5
:100FB000F004D093F1041092F7048093F804DCEA73
:100FC000D093F4043093F5041092F6041092FC04CC
:100FD0008093FD041092F90438EB3093FA041092D8
:100FE000FB0410920105809302051092FE04E09329
:100FF000FF041092000510920605809307051092D9
:101000000305E0930405F093050510920B0580930A
:101010000C0510920805A0930905A0930A051092EB
:1010200010058093110510920D0510920E05109277
:101030000F05109215058093160510921205109257
:1010400013051092140510921A0580931B05109237
:101050001705109218051092190510921F0580931C
:10106000200590931C0590931D0590931E051092EA
:10107000240580932505DCE3D09321057093220598
:10108000209323051092290580932A05C0932605F5
:10109000A09327052093280510922E0580932F05F5
:1010A00078E970932B0540932C0590932D051092B1
:1010B0003305809334059093300540933105909328
:1010C0003205109238058093390590933505609369
:1010D00036057093370510923D0580933E05909339
:1010E0003A0540933B0560933C051092420580937E
:1010F000430520933F05A0EAA0934005F0934105E6
:101100001092470580934805909344053093450518
:101110001092460510924C0580934D053093490579
:1011200090934A05F8E1F0934B0510925105809396
:10113000520560934E0550934F05F4E5F09350052A
:10114000109256058093570560935305909354056C
:101150007093550510925B0580935C0510925805BD
:1011600068EE6093590550935A051092600580937C
:10117000610540935D0540935E0540935F051092C5
:1011800065058093660510926205109263051092C2
:10119000640510926A0580936B05109267051092A2
:1011A00068051092690510926F0580937005209371
:1011B0006C0520936D0520936E0510927405809345
:1011C000750564EA60937105B09372052093730509
:1011D0001092790580937A053093760530937705E0
:1011E0009093780510927E0580937F0550937B0540
:1011F00030937C0590937D05109283058093840540
:101200009093800530938105909382051092880514
:1012100080938905909385056093860560EC6093C3
:10122000870510928D0580938E0560EF60938A0587
:1012300060ED60938B0560EB60938C0510929205D6
:101240008093930520938F0560EE60939005E09363
:10125000910510929705809398059093940550936B
:1012600095054093960510929C0580939D0550939B
:10127000990590939A0540939B051092A105809340
:10128000A20530939E0590939F053093A005109280
:10129000A6058093A7053093A3059093A4055093CA
:1012A000A5051092AB058093AC051092A80520937C
:1012B000A9052093AA051092B0058093B1059093DB
:1012C000AD055093AE059093AF051092B505809390
:1012D000B6051092B2051092B3051092B4051092A3
:1012E000BA058093BB051092B7051092B80510920D
:1012F000B90580E090E02FEFFC01E05CFC4FAC0111
:1013000048595C4FDF0111971C92208313971C9260
:1013100011961C9211961C923596E417F50791F7D9
:101320008896803431E0930739F780E090E04FEF02
:10133000FC01E050FE4F9C01285D3D4FDF011197FD
:101340001C92408313971C9211961C9211961C922A
:101350003596E217F30791F788968034E1E09E070F
:1013600039F71092FA018FEF8093FB011092F70189
:101370001092F8011092F9011092F4011092F30109
:101380001092F6011092F5011092DF011092E50122
:101390001092EC011092ED011092EE011092EF010B
:1013A00081E08093EB018093E8011092E90192E0E3
:1013B0009093EA018093DE0180EC90E09093E3014A
:1013C0008093E2010E949B0B9093E7018093E601DA
:1013D000009761F020ECFC0111922A95E9F780E476
:1013E00090E09093E1018093E00108C01092E30146
:1013F0001092E2011092E1011092E00185E08093E9
:10140000E4018091DF01882341F061E085E00E94E2
:101410001D0260E085E00E94D101E9EAF0E0E4917C
:10142000F0E0EE0FFF1FE656FF4F859194919093E9
:10143000F1018093F001EBE8F0E0E491E093F20138
:10144000CFB7F8948091BC05811127C0EEEAF0E097
:101450008491E0E9F0E09491E82FF0E0EE0FFF1FB7
:10146000E458FF4FA591B491EC91E92321F461E098
:101470008AE00E94D10161E08AE00E941D028CB5E1
:1014800080618CBD8CB580648CBD61E08DE00E9474
:101490001D0261E08BE00E941D028091BC058F5F00
:1014A0008093BC05CFBF61E08AE00E941D028CEDF5
:1014B00091E00E94A3028CB58C7F8CBD8DB58160BC
:1014C0008DBD8AE08093DD0181E08093DC01DF91B6
:1014D000CF911F910895EE0FFF1F0590F491E02D1D
:1014E00009940E94E50A88F09F5798F0B92F992730
:1014F000B751B0F0E1F0660F771F881F991F1AF0FF
:10150000BA95C9F714C0B13091F00E94FF0AB1E05A
:1015100008950C94FF0A672F782F8827B85F39F059
:10152000B93FCCF3869577956795B395D9F73EF497
:1015300090958095709561957F4F8F4F9F4F08953F
:10154000E89409C097FB3EF490958095709561955D
:101550007F4F8F4F9F4F9923A9F0F92F96E9BB2713
:101560009395F695879577956795B795F111F8CF8F
:10157000FAF4BB0F11F460FF1BC06F5F7F4F8F4FFA
:101580009F4F16C0882311F096E911C0772321F0F0
:101590009EE8872F762F05C0662371F096E8862F88
:1015A00070E060E02AF09A95660F771F881FDAF7DF
:1015B000880F9695879597F9089557FD9058440F91
:1015C000551F59F05F3F71F04795880F97FB991FA2
:1015D00061F09F3F79F0879508951216130614065F
:1015E000551FF2CF4695F1DF08C0161617061806EC
:1015F000991FF1CF86957105610508940895E894C7
:10160000BB2766277727CB0197F908950E94190B0E
:101610000C948A0B0E947C0B38F00E94830B20F004
:10162000952311F00C94730B0C94790B11240C94EA
:10163000000B0E94DD0A70F3959FC1F3950F50E0F7
:10164000551F629FF001729FBB27F00DB11D639F74
:10165000AA27F00DB11DAA1F649F6627B00DA11D1A
:10166000661F829F2227B00DA11D621F739FB00DC0
:10167000A11D621F839FA00D611D221F749F332730
:10168000A00D611D231F849F600D211D822F762FC9
:101690006A2F11249F5750409AF0F1F088234AF0A6
:1016A000EE0FFF1FBB1F661F771F881F9150504012
:1016B000A9F79E3F510580F00C94730B0C94000B1E
:1016C0005F3FE4F3983ED4F3869577956795B79599
:1016D000F795E7959F5FC1F7FE2B880F911D9695B3
:1016E000879597F9089597F99F6780E870E060E023
:1016F00008959FEF80EC089500240A9416161706AB
:1017000018060906089500240A94121613061406F2
:1017100005060895092E0394000C11F4882352F055
:10172000BB0F40F4BF2B11F460FF04C06F5F7F4F0D
:101730008F4F9F4F0895CF93DF938230910510F420
:1017400082E090E0E091BF05F091C00520E030E03C
:10175000C0E0D0E0309711F140815181481759071E
:10176000C0F04817590761F482819381209719F0DE
:101770009B838A832BC09093C0058093BF0526C0AE
:101780002115310519F04217530718F49A01BE01CB
:10179000DF01EF010280F381E02DDCCF211531055F
:1017A00009F1281B390B2430310590F412968D91E4
:1017B0009C9113976115710521F0FB01938382833E
:1017C00004C09093C0058093BF05FD01329644C0CC
:1017D000FD01E20FF31F81939193225031092D9364
:1017E0003C933AC02091BD053091BE05232B41F4B6
:1017F00020910601309107013093BE052093BD056D
:1018000020910401309105012115310541F42DB7D6
:101810003EB74091080150910901241B350BE0911E
:10182000BD05F091BE05E217F307A0F42E1B3F0B98
:101830002817390778F0AC014E5F5F4F2417350742
:1018400048F04E0F5F1F5093BE054093BD05819336
:10185000919302C0E0E0F0E0CF01DF91CF910895D5
:101860000F931F93CF93DF93009709F48CC0FC0173
:101870003297138212820091BF051091C0050115A5
:10188000110581F420813181820F931F2091BD05C4
:101890003091BE052817390779F5F093BE05E0931E
:1018A000BD0571C0D80140E050E0AE17BF0750F44D
:1018B00012962D913C911397AD012115310509F137
:1018C000D901F3CF9D01DA013383228360817181D5
:1018D000860F971F8217930769F4EC0128813981DD
:1018E000260F371F2E5F3F4F318320838A819B81D4
:1018F00093838283452B29F4F093C005E093BF05C1
:1019000042C01396FC93EE931297ED0149915991C1
:101910009E01240F351FE217F30771F48081918136
:10192000840F951F029611969C938E9382819381CA
:1019300013969C938E931297E0E0F0E0D8011296F4
:101940008D919C911397009719F0F8018C01F6CFB7
:101950008D919C9198012E5F3F4F820F931F209194
:10196000BD053091BE052817390769F4309729F471
:101970001092C0051092BF0502C01382128210930C
:10198000BE050093BD05DF91CF911F910F91089582
:1019900081E090E0F8940C94D50CF999FECF92BDBB
:1019A00081BDF89A992780B5089510E0CDE5D0E083
:1019B00004C0FE010E946B0A2196CE35D107C9F7FB
:0419C000F894FFCFC9
:1019C4000000803F0000C105800000000000E1002D
:1019D400AF02AA0088009C002801494E49542053B4
:1019E40052414D0072656164205352414D000D0A0D
:0219F4000000F1
:00000001FF
