:100000000C945E000C9486000C9486000C94860080
:100010000C9486000C9486000C9486000C94860048
:100020000C9486000C9486000C9486000C94860038
:100030000C9486000C9486000C9486000C94860028
:100040000C9484050C9486000C9492040C946C041B
:100050000C9486000C9486000C9486000C94860008
:100060000C9486000C948600000000080002010039
:100070000003040700000000000000000000000072
:10008000240027002A0001020408102040800102F9
:1000900004081020010204081020000000002500C0
:1000A00028002B00040404040404040402020202D5
:1000B00002020303030303033107210711241FBEB8
:1000C000CFEFD8E0DEBFCDBF11E0A0E0B1E0EEEEB3
:1000D000FCE102C005900D92A637B107D9F726E0E2
:1000E000A6E7B1E001C01D92AB3CB207E1F710E01A
:1000F000CDE5D0E004C02197FE010E94FA0BCC357B
:10010000D107C9F70E94F0050C946A0E0C94000008
:10011000CF92DF92EF92FF920F931F93CF93DF93D3
:100120006C017A018B01C0E0D0E0CE15DF0589F0CB
:10013000D8016D918D01D601ED91FC910190F08176
:10014000E02DC6010995892B11F47E0102C021968C
:10015000ECCFC701DF91CF911F910F91FF90EF90EE
:10016000DF90CF900895FC01918D828D981761F0FA
:10017000828DDF01A80FB11D5D968C91928D9F5FDE
:100180009F73928F90E008958FEF9FEF0895FC0189
:10019000918D828D981731F0828DE80FF11D858D3C
:1001A00090E008958FEF9FEF0895FC01918D228DCF
:1001B000892F90E0805C9F4F821B91098F73992754
:1001C000089587E892E00E94D50021E0892B09F488
:1001D00020E0822F0895FC01848DDF01A80FB11D5E
:1001E000A35ABF4F2C91848D90E001968F7399276D
:1001F000848FA689B7892C93A089B1898C9180645A
:100200008C93938D848D981306C00288F389E02D1A
:1002100080818F7D80830895EF92FF920F931F93CB
:10022000CF93DF93EC0181E0888F9B8D8C8D9813A9
:1002300005C0E889F989808185FD24C0F62E0B8DE3
:1002400010E00F5F1F4F0F731127E02E8C8DE81207
:100250000CC00FB607FCFACFE889F989808185FFC9
:10026000F5CFCE010E94EB00F1CF8B8DFE01E80FA0
:10027000F11DE35AFF4FF0820B8FEA89FB898081E1
:10028000806207C0EE89FF896083E889F9898081EF
:100290008064808381E090E0DF91CF911F910F9186
:1002A000FF90EF900895CF93DF93EC01888D882322
:1002B000C9F0EA89FB89808185FD05C0A889B989D3
:1002C0008C9186FD0FC00FB607FCF5CF808185FFAE
:1002D000F2CFA889B9898C9185FFEDCFCE010E941C
:1002E000EB00E7CFDF91CF91089580E090E0892B7C
:1002F00029F00E94E10081110C94000008953FB79D
:10030000F89480917B0190917C01A0917D01B09146
:100310007E0126B5A89B05C02F3F19F00196A11DAF
:10032000B11D3FBFBA2FA92F982F8827820F911D8B
:10033000A11DB11DBC01CD0142E0660F771F881FD2
:10034000991F4A95D1F708958F929F92AF92BF92CD
:10035000CF92DF92EF92FF926B017C010E947F01AE
:100360004B015C01C114D104E104F104F1F00E94DD
:100370007F01DC01CB0188199909AA09BB09883ED4
:100380009340A105B10570F321E0C21AD108E1083C
:10039000F10888EE880E83E0981EA11CB11CC114E0
:1003A000D104E104F10419F7DDCFFF90EF90DF9065
:1003B000CF90BF90AF909F908F9008958EBD00001A
:1003C0000DB407FEFDCF8EB508952F923F924F9248
:1003D0005F926F927F928F929F92AF92BF92CF92D5
:1003E000DF92EF92FF920F931F93CF93DF93CDB7DE
:1003F000DEB72F970FB6F894DEBF0FBECDBFE8E48F
:10040000CE2EE3E0DE2EA12CB12C7601E7E0F0E069
:10041000EA19FB09FD87EC87BF86AE86812C912CFB
:1004200080FE03C00E851F8502C00C851D852090AF
:100430000001309001014090020150900301C7017A
:1004400002979B878A87FC01608170E080E090E0E2
:100450000E94310CA20191010E94950C0E94000C97
:10046000662EEA85FB856083F7016291FB87EA8748
:1004700070E080E090E00E94310CA20191010E94A6
:10048000950C0E94000C762EEA85FB856083F701AF
:10049000608170E080E090E00E94310CA201910147
:1004A0000E94950C0E94000CF70160838091280344
:1004B000909129030817190708F041C080912D0376
:1004C000882361F0689E90011124632E789E90012C
:1004D0001124732E689FB0011124672F40913303BC
:1004E0008091300320912E0330912F03481309C0CF
:1004F000C801880F991F800F911F8901080F191FCC
:100500000CC0C801880F991F880F991F8901080F17
:10051000191FF801E40FF11D108280913003F801DA
:10052000E80FF11D608280913103F801E80FF11DA1
:10053000708280913203F801E80FF11D6083FFEFB4
:100540008F1A9F0A87E0E80EF11CEE85FF8538962A
:10055000FF87EE878C859D8508969D878C8798E020
:100560008916910409F05CCFEFEFAE1ABE0AF8E3EA
:10057000CF0ED11C88E0A816B10409F046CF8091B7
:100580002E0390912F03892B09F4A1C00E947F01B3
:1005900000913403109135032091360330913703D5
:1005A000DC01CB01801B910BA20BB30BC297A10501
:1005B000B10560F3F89480912A0390912B039A83FC
:1005C0008983E0912E03F0912F03DF011196808142
:1005D000898790912603E0913803F0913903809147
:1005E0003A03992309F42EC09081982B9887908123
:1005F000809589238F838F818C8388E08B835885B6
:100600006F8149853B812C8189819A81508347FD87
:10061000252F3A952083262F39F0441F00C0000073
:100620006083000000C0F2CF38E04D91608300008D
:10063000019761F7F0933903E093380349873B83CF
:100640002C8338C09081982B98879081809589233E
:100650008F838F818E8388E08D8358856F81498554
:100660003D812E8189819A81508347FD252F00C0CD
:1006700000C0208300C000C000C000C000C0608374
:100680000000262F3A9541F0441F000000C000C032
:1006900000C000C000C0E8CF38E04D9100C06083CA
:1006A00000C0019709F7F0933903E09338034987B5
:1006B0003D832E839A83898378940E947F0160937F
:1006C00034037093350380933603909337032F964A
:1006D0000FB6F894DEBF0FBECDBFDF91CF911F9153
:1006E0000F91FF90EF90DF90CF90BF90AF909F90D1
:1006F0008F907F906F905F904F903F902F900895D4
:100700002F923F924F925F926F927F928F929F9221
:10071000AF92BF92CF92DF92EF92FF920F931F930F
:10072000CF93DF93CDB7DEB72F970FB6F894DEBF28
:100730000FBECDBF8AE191E00E94CE0580913F03BC
:100740008F83909140039887A0914103A98788E403
:10075000282E83E0382EE12CF12C3F862E86812C2A
:10076000912CEE85FF853297FE83ED838F81808308
:10077000AE85BF85E885EE93BC83AB83E985AE8506
:10078000BF85EC9314961C921E9213978FE791E00D
:100790009A838983C12CD12CD401AE0DBF1DBD8796
:1007A000AC87EC85FD85EC0DFD1DE957FE4FA08063
:1007B000B180EE85FF8583819481A816B90609F47E
:1007C0004BC0A114B10409F447C0A981BA814D906E
:1007D0005D906D907C90B7E0BA9D8001BB9D100D3F
:1007E00011240A5F1A4FF801628170E080E090E006
:1007F0000E94310CA30192010E94950C0E94000CF2
:100800006A87D80111966C9170E080E090E00E94B8
:10081000310CA30192010E94950C0E94000C6B8781
:10082000F801608170E080E090E00E94310CA3014B
:1008300092010E94950C0E94000CAD81BE816C93C8
:100840008B85EB81FC818083EA85AE85BF85EC9347
:100850001496BC92AE921397F0E8CF0ED11C89810A
:100860009A8104969A838983C11491E0D90609F08C
:1008700098CFAE85BF851796BF87AE87B2E08B0E47
:10088000911CE0E18E16910409F06BCFF0E1EF0EC0
:10089000F11C88E3280E311C90E8E916F10409F0F8
:1008A0005CCF2F960FB6F894DEBF0FBECDBFDF91A1
:1008B000CF911F910F91FF90EF90DF90CF90BF905D
:1008C000AF909F908F907F906F905F904F903F90F0
:1008D0002F9008950E94570E1F920F920FB60F92FD
:1008E00011242F933F934F935F936F937F938F9335
:1008F0009F93AF93BF93EF93FF9387E892E00E949B
:10090000EB00FF91EF91BF91AF919F918F917F91FC
:100910006F915F914F913F912F910F900FBE0F906C
:100920001F9018951F920F920FB60F9211242F93BC
:100930008F939F93EF93FF93E0919702F09198022A
:100940008081E0919D02F0919E0282FD12C0908113
:100950008091A0028F5F8F732091A102821751F0C6
:10096000E091A002F0E0E957FD4F958F8093A0023F
:1009700001C08081FF91EF919F918F912F910F90F6
:100980000FBE0F901F90189590E0FC01E859FF4FA3
:100990003491FC01EA57FF4F2491FC01EC55FF4FC5
:1009A000E491EE2309F43BC0332339F1333091F065
:1009B00038F43130A9F0323001F584B58F7D12C0A2
:1009C000373091F03830A1F03430B9F480918000A4
:1009D0008F7D03C0809180008F77809380000DC051
:1009E00084B58F7784BD09C08091B0008F7703C034
:1009F0008091B0008F7D8093B000F0E0EE0FFF1F7C
:100A0000E656FF4FA591B4918FB7F894EC91611120
:100A100003C020952E2301C02E2B2C938FBF089549
:100A20001F93CF93DF93D82F192FC62F80912403C4
:100A3000813099F060E0809125030E94C40481E038
:100A40000E94DE0181E00E94DE0161E080912503C9
:100A50000E94C40481E08093240360E08091250318
:100A60000E94C40482E00E94DE01812F0E94DE0108
:100A70008D2F0E94DE018C2F0E94DE0161E08091AB
:100A800025030E94C4048C2FDF91CF911F910895FC
:100A9000CF93DF9390E0FC01EA57FF4F2491FC01D4
:100AA000EC55FF4F8491882361F190E0880F991FE6
:100AB000FC01E458FF4FC591D491FC01E656FF4F6D
:100AC000A591B491611109C09FB7F89488812095D0
:100AD00082238883EC912E230BC0623061F49FB790
:100AE000F8943881822F809583238883EC912E2B74
:100AF0002C939FBF06C08FB7F894E8812E2B2883D4
:100B00008FBFDF91CF9108951F920F920FB60F9272
:100B100011242F933F938F939F93AF93BF93809113
:100B2000770190917801A0917901B0917A0130918B
:100B3000760123E0230F2D3720F40196A11DB11D6E
:100B400005C026E8230F0296A11DB11D2093760152
:100B50008093770190937801A0937901B0937A0103
:100B600080917B0190917C01A0917D01B0917E01EB
:100B70000196A11DB11D80937B0190937C01A093F0
:100B80007D01B0937E01BF91AF919F918F913F9175
:100B90002F910F900FBE0F901F901895CF93DF935A
:100BA000009779F0FC0101900020E9F73197AF013F
:100BB000481B590BBC0187E892E00E948800EC01B9
:100BC00002C0C0E0D0E042E050E063E771E087E8B7
:100BD00092E00E9488008C0F9D1FDF91CF910895B5
:100BE000789484B5826084BD84B5816084BD85B508
:100BF000826085BD85B5816085BD80916E00816014
:100C000080936E00109281008091810082608093B9
:100C100081008091810081608093810080918000BB
:100C20008160809380008091B10084608093B100E6
:100C30008091B00081608093B00080917A008460E0
:100C400080937A0080917A00826080937A0080910C
:100C50007A00816080937A0080917A008068809326
:100C60007A001092C100E0919702F091980282E020
:100C70008083E0919302F09194021082E0919502BA
:100C8000F091960280E1808310929F02E0919B0296
:100C9000F0919C0286E08083E0919902F0919A02A3
:100CA000808180618083E0919902F0919A02808135
:100CB00088608083E0919902F0919A028081806837
:100CC0008083E0919902F0919A0280818F7D8083E8
:100CD00080912C0387FD08C061E00E94480560E018
:100CE00080912C030E94C40481E0809327038BE24F
:100CF00091E00E94CE0587E891E09C0140E050E041
:100D0000F901E40FF51F118210824E5F5F4F4031F1
:100D10005105B1F7205F3F4F42E02730340771F7AC
:100D200020E030E0F901E058FF4FE80FF91F118291
:100D300010822E5F3F4F20313105A1F7409622E00F
:100D40008730920769F740913F03509140036091CB
:100D5000410326E433E080E090E0F901E80FF91F59
:100D600040835183628316821582079688339105EA
:100D7000A1F7285C3F4F85E02630380761F780E017
:100D800090E0A0E8BFE380937F0190938001A0935F
:100D90008101B09382018093830190938401A09399
:100DA0008501B09386018093000190930101A09387
:100DB0000201B09303010E9480030E94E50168EEE6
:100DC00073E080E090E00E94A40187E391E00E943C
:100DD000CE05C0E0D0E0D7FD06C060E0CE010E94A5
:100DE00010052196F8CF81E491E00E94CE058DE4B4
:100DF00091E00E94CE05C0E0D0E06C2FCE010E94B1
:100E00005C0E2196C034D105C1F7C0E0D0E06C2F54
:100E10006F70CE010E9410052196C034D105B9F73C
:100E200089E691E00E94CE050E9480030E94E501C0
:100E300068E873E180E090E00E94A4010E947501DF
:100E4000F7CF80912E0390912F03009711F00E940D
:100E5000BF0D80912C0387FD03C060E00C94480512
:100E600008951F93CF93DF9310928A021092890204
:100E700088EE93E0A0E0B0E080938B0290938C0228
:100E8000A0938D02B0938E028EE091E09093880241
:100E90008093870285EC90E0909394028093930274
:100EA00084EC90E0909396028093950280EC90E021
:100EB000909398028093970281EC90E090939A022D
:100EC0008093990282EC90E090939C0280939B0225
:100ED00086EC90E090939E0280939D021092A00277
:100EE0001092A1021092A2021092A3021092090580
:100EF0008FEF80930A0510920C0510920B053CE7CA
:100F000030930605309307053093080510921005BD
:100F100080931105109213051092120510920D0581
:100F200010920E052CEF20930F0510921705809359
:100F3000180510921A0510921905109214051092B6
:100F400015057CEB7093160510921E0580931F0506
:100F50001092210510922005F4E4F0931B0598E20D
:100F600090931C0570931D0510922505809326050E
:100F7000109228051092270594E99093220510926B
:100F8000230594E89093240510922C0580932D0559
:100F900010922F0510922E05E8EAE0932905109291
:100FA0002A0590E290932B05109233058093340527
:100FB0001092360510923505E0933005D0E1D093BC
:100FC00031051092320510923A0580933B0510923C
:100FD0003D0510923C05A8E8A093370594E1909355
:100FE0003805109239051092410580934205109200
:100FF00044051092430590E590933E0590E390934D
:101000003F051092400510924805809349051092C3
:101010004B0510924A051092450548E74093460556
:101020001092470510924F0580935005109252057B
:101030001092510510924C05C8E6C0934D051092D0
:101040004E0510925605809357051092590510923F
:1010500058051092530568E56093540510925505A4
:1010600010925D0580935E051092600510925F05F9
:1010700010925A0590E490935B0560935C05109282
:1010800064058093650510926705109266051092BD
:101090006105109262051092630510926B058093B2
:1010A0006C0510926E0510926D05109268051092F5
:1010B000690510926A05109272058093730510926B
:1010C00075051092740510926F05109270051092BC
:1010D00071051092790580937A0510927C05109223
:1010E0007B05709376057093770570937805109261
:1010F00080058093810510928305109282051092DD
:101100007D0540937E0598EF90937F0510928705AB
:101110008093880510928A051092890510928405A3
:10112000609385059093860510928E0580938F05B8
:101130001092910510929005C0938B05F0938C0549
:1011400020938D0510929505809396051092980531
:101150001092970558ED5093920510929305BCECB0
:10116000B093940510929C0580939D0510929F0565
:1011700010929E05B4EEB093990510929A05609373
:101180009B051092A3058093A4051092A6051092CA
:10119000A5059093A00518E31093A1051092A20550
:1011A0001092AA058093AB051092AD051092AC0584
:1011B000B093A7051CE51093A805D093A90510923C
:1011C000B1058093B2051092B4051092B305DCEA24
:1011D000D093AE053093AF051092B0051092B805CC
:1011E0008093B9051092BB051092BA051092B5050F
:1011F00038EB3093B6051092B7051092BF05809377
:10120000C0051092C2051092C1051092BC05E09372
:10121000BD051092BE051092C6058093C7051092B9
:10122000C9051092C8051092C305E093C405F09358
:10123000C5051092CD058093CE051092D005109271
:10124000CF051092CA05A093CB05A093CC051092B0
:10125000D4058093D5051092D7051092D60510922B
:10126000D1051092D2051092D3051092DB05809320
:10127000DC051092DE051092DD051092D805109263
:10128000D9051092DA051092E2058093E3051092D9
:10129000E5051092E4051092DF051092E00510922A
:1012A000E1051092E9058093EA051092EC05109291
:1012B000EB059093E6059093E7059093E80510926F
:1012C000F0058093F1051092F3051092F205DCE32E
:1012D000D093ED057093EE052093EF051092F7057E
:1012E0008093F8051092FA051092F905C093F40561
:1012F000A093F5052093F6051092FE058093FF0557
:10130000109201061092000678E97093FB05409355
:10131000FC059093FD051092050680930606109239
:1013200008061092070690930206409303069093D6
:10133000040610920C0680930D0610920F06109270
:101340000E069093090660930A0670930B0610929E
:1013500013068093140610921606109215069093A9
:101360001006409311066093120610921A0680939D
:101370001B0610921D0610921C0620931706A0EA69
:10138000A0931806F0931906109221068093220666
:10139000109224061092230690931E0630931F0687
:1013A00010922006109228068093290610922B0690
:1013B00010922A063093250690932606F8E1F093C2
:1013C000270610922F068093300610923206109254
:1013D000310660932C0650932D06F4E5F0932E060B
:1013E000109236068093370610923906109238060E
:1013F00060933306909334067093350610923D0641
:1014000080933E061092400610923F0610923A06D4
:1014100068EE60933B0650933C061092440680931E
:1014200045061092470610924606409341064093A7
:1014300042064093430610924B0680934C0610924E
:101440004E0610924D0610924806109249061092D0
:101450004A06109252068093530610925506109237
:10146000540610924F061092500610925106109298
:10147000590680935A0610925C0610925B062093E0
:1014800056062093570620935806109260068093C4
:101490006106109263061092620664EA60935D062C
:1014A000B0935E0620935F061092670680936806ED
:1014B00010926A06109269063093640630936506AE
:1014C0009093660610926E0680936F0610927106D6
:1014D0001092700650936B0630936C0690936D06D5
:1014E0001092750680937606109278061092770611
:1014F00090937206309373069093740610927C0654
:1015000080937D0610927F0610927E069093790656
:1015100060937A0660EC60937B061092830680935A
:101520008406109286061092850660EF609380060E
:1015300060ED6093810660EB6093820610928A06EC
:1015400080938B0610928D0610928C06209387064E
:1015500060EE60938806E09389061092910680936E
:101560009206109294061092930690938E065093D2
:101570008F064093900610929806809399061092D9
:101580009B0610929A065093950690939606409368
:10159000970610929F068093A0061092A2061092C2
:1015A000A10630939C0690939D0630939E06109260
:1015B000A6068093A7061092A9061092A80630935B
:1015C000A3069093A4065093A5061092AD068093AF
:1015D000AE061092B0061092AF061092AA062093A3
:1015E000AB062093AC061092B4068093B506109219
:1015F000B7061092B6069093B1065093B206909338
:10160000B3061092BB068093BC061092BE061092E1
:10161000BD061092B8061092B9061092BA06109242
:10162000C2068093C3061092C5061092C40610929B
:10163000BF061092C0061092C10680E090E04FEF06
:10164000FC01E65BFC4F9C012E573C4FDF011197DC
:101650001C9240831282118213971C9211961C9245
:1016600011961C923796E217F30781F7C896803CD3
:1016700021E0920729F7109242038FEF80934303F2
:10168000109245031092440310923F0310924003BE
:101690001092410310923C0310923B0310923E03C0
:1016A00010923D031092270310922D0310923403E1
:1016B00010923503109236031092370381E0809325
:1016C0003303809330031092310392E090933203FE
:1016D0008093260380EC90E090932B0380932A0361
:1016E0000E942A0D90932F0380932E03009761F0A0
:1016F00020ECFC0111922A95E9F780E490E09093A8
:1017000029038093280308C010922B0310922A0308
:10171000109229031092280385E080932C03809176
:101720002703882341F061E085E00E94480560E0DE
:1017300085E00E94C404E9EAF0E0E491F0E0EE0FF5
:10174000FF1FE656FF4F8591949190933903809344
:101750003803EBE8F0E0E491E0933A03CFB7F89474
:101760008091C606811127C0EEEAF0E08491E0E99D
:10177000F0E09491E82FF0E0EE0FFF1FE458FF4FE8
:10178000A591B491EC91E92321F461E08AE00E94F3
:10179000C40461E08AE00E9448058CB580618CBD7C
:1017A0008CB580648CBD61E08DE00E94480561E0ED
:1017B0008BE00E9448058091C6068F5F8093C60625
:1017C000CFBF61E08AE00E94480561E08091250377
:1017D0000E94C4048CB58C7F8CBD8DB581608DBD9D
:1017E0008AE08093250381E080932403DF91CF91E9
:1017F0001F910895EE0FFF1F0590F491E02D0994BD
:101800000E94740C88F09F5798F0B92F9927B75110
:10181000B0F0E1F0660F771F881F991F1AF0BA9594
:10182000C9F714C0B13091F00E948E0CB1E0089558
:101830000C948E0C672F782F8827B85F39F0B93F4A
:10184000CCF3869577956795B395D9F73EF4909547
:101850008095709561957F4F8F4F9F4F0895E894C5
:1018600009C097FB3EF490958095709561957F4FE8
:101870008F4F9F4F9923A9F0F92F96E9BB27939596
:10188000F695879577956795B795F111F8CFFAF4A6
:10189000BB0F11F460FF1BC06F5F7F4F8F4F9F4FD7
:1018A00016C0882311F096E911C0772321F09EE835
:1018B000872F762F05C0662371F096E8862F70E09B
:1018C00060E02AF09A95660F771F881FDAF7880F75
:1018D0009695879597F9089557FD9058440F551F91
:1018E00059F05F3F71F04795880F97FB991F61F0A2
:1018F0009F3F79F087950895121613061406551F19
:10190000F2CF4695F1DF08C0161617061806991F84
:10191000F1CF86957105610508940895E894BB2779
:1019200066277727CB0197F908950E94A80C0C949D
:10193000190D0E940B0D38F00E94120D20F0952316
:1019400011F00C94020D0C94080D11240C948F0CC2
:101950000E946C0C70F3959FC1F3950F50E0551FDA
:10196000629FF001729FBB27F00DB11D639FAA27F4
:10197000F00DB11DAA1F649F6627B00DA11D661F43
:10198000829F2227B00DA11D621F739FB00DA11D64
:10199000621F839FA00D611D221F749F3327A00D1E
:1019A000611D231F849F600D211D822F762F6A2FBA
:1019B00011249F5750409AF0F1F088234AF0EE0F1F
:1019C000FF1FBB1F661F771F881F91505040A9F74C
:1019D0009E3F510580F00C94020D0C948F0C5F3FDC
:1019E000E4F3983ED4F3869577956795B795F79588
:1019F000E7959F5FC1F7FE2B880F911D9695879500
:101A000097F9089597F99F6780E870E060E008957E
:101A10009FEF80EC089500240A9416161706180606
:101A20000906089500240A941216130614060506E2
:101A30000895092E0394000C11F4882352F0BB0F73
:101A400040F4BF2B11F460FF04C06F5F7F4F8F4FD6
:101A50009F4F0895CF93DF938230910510F482E079
:101A600090E0E091C906F091CA0620E030E0C0E0C5
:101A7000D0E0309711F14081518148175907C0F0EB
:101A80004817590761F482819381209719F09B834D
:101A90008A832BC09093CA068093C90626C021155D
:101AA000310519F04217530718F49A01BE01DF01FE
:101AB000EF010280F381E02DDCCF2115310509F122
:101AC000281B390B2430310590F412968D919C918E
:101AD00013976115710521F0FB019383828304C084
:101AE0009093CA068093C906FD01329644C0FD0159
:101AF000E20FF31F81939193225031092D933C9370
:101B00003AC02091C7063091C806232B41F420919A
:101B10000601309107013093C8062093C706209133
:101B20000401309105012115310541F42DB73EB76F
:101B30004091080150910901241B350BE091C70623
:101B4000F091C806E217F307A0F42E1B3F0B2817ED
:101B5000390778F0AC014E5F5F4F2417350748F026
:101B60004E0F5F1F5093C8064093C7068193919311
:101B700002C0E0E0F0E0CF01DF91CF9108950F9334
:101B80001F93CF93DF93009709F48CC0FC01329729
:101B9000138212820091C9061091CA06011511051F
:101BA00081F420813181820F931F2091C7063091EB
:101BB000C8062817390779F5F093C806E093C706D9
:101BC00071C0D80140E050E0AE17BF0750F4129644
:101BD0002D913C911397AD012115310509F1D901E2
:101BE000F3CF9D01DA013383228360817181860FF7
:101BF000971F8217930769F4EC0128813981260F1A
:101C0000371F2E5F3F4F318320838A819B819383CF
:101C10008283452B29F4F093CA06E093C90642C09B
:101C20001396FC93EE931297ED01499159919E0101
:101C3000240F351FE217F30771F480819181840F1F
:101C4000951F029611969C938E9382819381139691
:101C50009C938E931297E0E0F0E0D80112968D915C
:101C60009C911397009719F0F8018C01F6CF8D9194
:101C70009C9198012E5F3F4F820F931F2091C706C2
:101C80003091C8062817390769F4309729F4109263
:101C9000CA061092C90602C0138212821093C806A7
:101CA0000093C706DF91CF911F910F91089581E0B6
:101CB00090E0F8940C946A0E262FF999FECF1FBA83
:101CC00092BD81BD20BD0FB6F894FA9AF99A0FBE65
:101CD0000196089510E0CDE5D0E004C0FE010E9419
:0E1CE000FA0B2196CE35D107C9F7F894FFCF45
:101CEE000000803F0000CB068000000000000C01C9
:101CFE008800D500B300C700530167656E206F756D
:101D0E0074707574206C6179657200494E49542067
:101D1E004C415945525300494E4954205352414D5E
:101D2E0000494E495420454550524F4D0047454EAF
:101D3E0045524154452053414D504C452045455048
:101D4E00524F4D20444154410072656164205352FC
:061D5E00414D000D0A00DA
:00000001FF
